:100000000C945D000C9485000C9485000C94850084
:100010000C9485000C9485000C9485000C9485004C
:100020000C9485000C9485000C9485000C9485003C
:100030000C9485000C9485000C9485000C9485002C
:100040000C94E1020C9485000C94AF020C9489028C
:100050000C9485000C9485000C9485000C9485000C
:100060000C9485000C94850000000008000201003B
:100070000003040700000000000000000000000072
:10008000250028002B0000000000240027002A0083
:10009000040404040404040402020202020203032E
:1000A0000303030301020408102040800102040836
:1000B0001020010204081020D10411241FBECFEF2C
:1000C000D8E0DEBFCDBF11E0A0E0B1E0EEEDFAE098
:1000D00002C005900D92A232B107D9F721E0A2E249
:1000E000B1E001C01D92A13DB207E1F710E0CDE5FE
:1000F000D0E004C02197FE010E946705CC35D107EE
:10010000C9F70E942B030C946D050C94000090E03D
:10011000FC01EC55FF4F249180579F4FFC018491C7
:10012000882399F090E0880F991FFC01EA57FF4F50
:10013000A591B491FC01E458FF4F859194918FB73C
:10014000F894EC91E22BEC938FBF0895AF92BF929D
:10015000CF92DF92EF92FF920F931F93CF93DF9393
:100160006C017B018B01040F151FEB015E01AE18C2
:10017000BF08C017D10759F06991D601ED91FC91E4
:100180000190F081E02DC6010995892B79F7C50111
:10019000DF91CF911F910F91FF90EF90DF90CF9063
:1001A000BF90AF900895FC01538D448D252F30E012
:1001B000842F90E0821B930B541710F0CF96089574
:1001C00001970895FC01918D828D981761F0A28DA1
:1001D000AE0FBF2FB11D5D968C91928D9F5F9F7367
:1001E000928F90E008958FEF9FEF0895FC01918D1D
:1001F000828D981731F0828DE80FF11D858D90E08A
:1002000008958FEF9FEF0895FC01918D228D892F26
:1002100090E0805C9F4F821B91098F73992708950E
:1002200084E391E00E94040121E0892B09F420E09D
:10023000822F089580E090E0892B29F00E94100120
:1002400081110C9400000895FC01A48DA80FB92F12
:10025000B11DA35ABF4F2C91848D90E001968F73EE
:100260009927848FA689B7892C93A089B1898C910D
:10027000837080648C93938D848D981306C002885C
:10028000F389E02D80818F7D80830895EF92FF9226
:100290000F931F93CF93DF93EC0181E0888F9B8DA9
:1002A0008C8D98131AC0E889F989808185FF15C063
:1002B0009FB7F894EE89FF896083E889F989808186
:1002C0008370806480839FBF81E090E0DF91CF9155
:1002D0001F910F91FF90EF900895F62E0B8D10E077
:1002E0000F5F1F4F0F731127E02E8C8D8E110CC0E6
:1002F0000FB607FCFACFE889F989808185FFF5CF31
:10030000CE010E942401F1CFEB8DEC0FFD2FF11DEA
:10031000E35AFF4FF0829FB7F8940B8FEA89FB896D
:1003200080818062CFCFCF93DF93EC01888D8823CB
:10033000B9F0AA89BB89E889F9898C9185FD03C048
:10034000808186FD0DC00FB607FCF7CF8C9185FF2D
:10035000F2CF808185FFEDCFCE010E942401E9CF4D
:10036000DF91CF91089590E0FC01E859FF4F24916F
:10037000FC01EC55FF4F3491FC01E057FF4FE49135
:10038000EE23C9F0222339F0233001F1A8F4213003
:1003900019F1223029F1F0E0EE0FFF1FE458FF4F72
:1003A000A591B4918FB7F894EC91611126C0309566
:1003B0003E233C938FBF08952730A9F02830C9F021
:1003C000243049F7809180008F7D03C080918000A8
:1003D0008F7780938000DFCF84B58F7784BDDBCFAC
:1003E00084B58F7DFBCF8091B0008F778093B00074
:1003F000D2CF8091B0008F7DF9CF3E2BDACF3FB7BF
:10040000F8948091230190912401A0912501B0914D
:10041000260126B5A89B05C02F3F19F00196A11D06
:10042000B11D3FBFBA2FA92F982F8827BC01CD013E
:10043000620F711D811D911D42E0660F771F881F9D
:10044000991F4A95D1F708951F93CF93DF93182FE3
:10045000682F617082E00E94B301C12FD0E0BE011D
:1004600075956795617083E00E94B301BE01759533
:10047000679575956795617084E00E94B301BE0130
:1004800023E0759567952A95E1F7617085E00E94F4
:10049000B301BE0134E0759567953A95E1F7617057
:1004A00086E00E94B301BE0145E0759567954A95C7
:1004B000E1F7617087E00E94B30156E0D595C795DA
:1004C0005A95E1F76C2F617088E00E94B301612FAB
:1004D000661F6627661F89E00E94B30160E08CE01A
:1004E0000E94B3018FE090E00197F1F761E08CE0AA
:1004F000DF91CF911F910C94B3018FE90E942402E8
:100500008FEB0E9424028FED0E9424028FEF0C9447
:1005100024021F920F920FB60F9211242F933F9334
:100520004F935F936F937F938F939F93AF93BF93FB
:10053000EF93FF9384E391E00E942401FF91EF91F8
:10054000BF91AF919F918F917F916F915F914F91EB
:100550003F912F910F900FBE0F901F9018951F92F3
:100560000F920FB60F9211242F938F939F93EF93B7
:10057000FF93E0914401F09145018081E0914A01AF
:10058000F0914B0182FD1BC0908180914D018F5FE6
:100590008F7320914E01821741F0E0914D01F0E000
:1005A000EC5CFE4F958F80934D01FF91EF919F91F1
:1005B0008F912F910F900FBE0F901F9018958081F3
:1005C000F4CF1F920F920FB60F9211242F933F93E7
:1005D0008F939F93AF93BF938091270190912801B0
:1005E000A0912901B0912A013091220123E0230F2B
:1005F0002D3758F50196A11DB11D2093220180933E
:10060000270190932801A0932901B0932A0180919A
:10061000230190912401A0912501B091260101961A
:10062000A11DB11D8093230190932401A093250166
:10063000B0932601BF91AF919F918F913F912F91E0
:100640000F900FBE0F901F90189526E8230F02966B
:10065000A11DB11DD2CFCF93DF93CDB7DEB7609789
:100660000FB6F894DEBF0FBECDBF789484B582601C
:1006700084BD84B5816084BD85B5826085BD85B546
:10068000816085BD80916E00816080936E001092C4
:10069000810080918100826080938100809181003F
:1006A00081608093810080918000816080938000D0
:1006B0008091B10084608093B1008091B00081602E
:1006C0008093B00080917A00846080937A0080915A
:1006D0007A00826080937A0080917A0081608093B2
:1006E0007A0080917A00806880937A001092C1002D
:1006F0008CE00E94870061E08CE00E94B30182E000
:100700000E94870083E00E94870084E00E948700A7
:1007100085E00E94870086E00E94870087E00E94B3
:10072000870088E00E94870089E00E9487008AE0B5
:100730000E94870060E08AE00E94B30180E1E0E06F
:10074000F1E0DE01119601900D928A95E1F70E9489
:100750007D02CE0101961C0110E000E049E9442E23
:100760004EE9542E46E3642E712CF1012191319112
:100770001F0185E0220F331F8A95E1F7032E000C3D
:10078000440B550BC301B2010E9412054901C80177
:1007900063E070E00E94FE047C0195E0EE0CFF1C1B
:1007A0009A95E1F7982D9F708E2D8068892B0E9475
:1007B0002402C40124E0959587952A95E1F78F736B
:1007C0000E9424028E2D80690E9424020E94FF0153
:1007D0004B015C013CE2C32EDD24D394E12CF12CCF
:1007E0000E94FF01681979098A099B09683E7340D4
:1007F00081059105A8F3F1E0CF1AD108E108F108CD
:1008000028EE820E23E0921EA11CB11CC114D1045B
:10081000E104F10429F70F5F1F4F0830110509F0BB
:10082000A4CF0E947D02E0914401F091450182E055
:100830008083E0914001F09141011082E0914201FA
:10084000F091430180E1808310924C01E0914801D6
:10085000F091490186E08083E0914601F0914701E3
:10086000808180618083E0914601F0914701808121
:1008700088608083E0914601F09147018081806823
:100880008083E0914601F091470180818F7D8083D4
:100890002FB7F8948091270190912801A091290108
:1008A000B0912A012FBF8093300190933101A09322
:1008B0003201B093330100E010E084E391E00E9444
:1008C00004011816190644F584E391E00E94E20041
:1008D0000E9424022FB7F89480912701909128015B
:1008E000A0912901B0912A012FBF809330019093EC
:1008F0003101A0933201B093330188589F4FAF4F1D
:10090000BF4F80932C0190932D01A0932E01B093A3
:100910002F0110922B01D1CF8FB7F894C0902701EF
:10092000D0902801E0902901F0902A018FBF80919A
:100930002C0190912D01A0912E01B0912F0161E029
:10094000C816D906EA06FB0608F060E08AE00E94B5
:10095000B30180912B01811118C0809130019091D9
:100960003101A0913201B0913301C81AD90AEA0AC3
:10097000FB0AF9EECF16F3E0DF06E104F10428F0FC
:100980000E947D0281E080932B010115110509F47D
:1009900094CF0E941001882309F48FCF0E94000099
:1009A0008CCFE4E3F1E01382128288EE93E0A0E0C2
:1009B000B0E084839583A683B78384E191E091833B
:1009C000808385EC90E09587848784EC90E097871E
:1009D000868780EC90E0918B808B81EC90E0938B0C
:1009E000828B82EC90E0958B848B86EC90E0978BE9
:1009F000868B118E128E138E148E089597FB072E00
:100A000016F4009407D077FD09D00E94310507FC49
:100A100005D03EF4909581959F4F0895709561950E
:100A20007F4F0895052E97FB1EF400940E94290520
:100A300057FD07D00E94450507FC03D04EF40C94E7
:100A4000290550954095309521953F4F4F4F5F4F69
:100A5000089590958095709561957F4F8F4F9F4F2A
:100A60000895AA1BBB1B51E107C0AA1FBB1FA617F5
:100A7000B70710F0A61BB70B881F991F5A95A9F747
:100A800080959095BC01CD010895A1E21A2EAA1B74
:100A9000BB1BFD010DC0AA1FBB1FEE1FFF1FA2172E
:100AA000B307E407F50720F0A21BB30BE40BF50B2B
:100AB000661F771F881F991F1A9469F760957095B4
:100AC000809590959B01AC01BD01CF010895EE0F7B
:0E0AD000FF1F0590F491E02D0994F894FFCFDC
:100ADE00060126014A015D018801B801EE010B02F3
:100AEE00000000004601A600D30093010401E200BD
:020AFE00F60000
:00000001FF
